:100000000C948A030C94C2030C94C2030C94C20394
:100010000C94C2030C94C2030C94C2030C94C2034C
:100020000C94C2030C94C2030C94722E0C94462FB1
:100030000C9478290C94C2030C94C2030C94C20350
:100040000C94C2030C94C2030C94C2030C94C2031C
:100050000C94C2030C941B2A0C94C2030C94C2038C
:100060000C94C2030C94C2030C94C2030C94C203FC
:100070000C94C2030C94C2030C94C2030C94C203EC
:100080000C94C2030C94C2030C94C2030C94C203DC
:100090000C94C2030C94C2030C94C2030C94C203CC
:1000A0000C94C2030C94C2030C94C2032941330084
:1000B0003600370013001C0009000A000600150076
:1000C0000F002A002B2104001200080018000C0069
:1000D00007000B001700110016002D48E100340046
:1000E00014000D000E001B00050010001A0019007E
:1000F0001D00E5004C00E3003921E20023522C42B0
:1001000000002844E60061526252635229003A001E
:100110003B003C003D003E0057001E001F00200039
:1001200056002A002B213F004000410042004300BE
:1001300055002100220023005400E20001000100CC
:10014000E6000100440045002E00240025002600A2
:10015000270063004C000100E100E000E101010024
:100160000000280063003600000061522900E10011
:10017000E3002B00E200460049002B1352002B0144
:10018000D9002A002B004A004D00E100E000E20007
:100190000000500051004F00DA004C0029521D01B0
:1001A0001B01060119011C010000DB00BD00DC0081
:1001B0004B00E500E201E2000813E202091301002E
:1001C00000002800010000004E00625235001E02AF
:1001D0001F022002210222022302240225022602FB
:1001E00027022A0001001E001F002000210022001B
:1001F000230024002500260027002E00E1002D000A
:100200002E002F0030003800310033003600370058
:1002100023020100010001000100E20001000100D1
:1002200000002552E60000000000635235001E0267
:100230001F02260227023814380234022302350036
:1002400025022A002B21360237022F0230021E140B
:100250001E0238003102310020022102E100340088
:1002600034022F00300033023300360256003702CA
:10027000240235024C00E000E300E20025522C008D
:1002800000000100E600E4002202000001002278E4
:10029000027C20782178237824782578267827789E
:1002A0002878475200002B782C782D782E782F78DC
:1002B000307846520000405200004A520000317827
:1002C00032783378000000000000000000000000D9
:1002D00029782A78007C000000000000010000005E
:1002E0000000010000000000000000002B4114008D
:1002F0001A000800150017001C0018000C0012005E
:1003000013002A00290004001600070009000A0053
:100310000B0001000E000F0033003400E1001D004F
:100320001B00060019000500110010003600370000
:10033000380028002078E000E300E20023522C423D
:100340000000284450005100520040523A001E0064
:100350001F00200021002200230024002500260089
:10036000270001002B0014001A00080015001700D8
:100370001C0018000C00120013002800E10004000B
:100380001600070009000A000B000D000E000F0008
:1003900033002078E0001D001B00060019002C48E7
:1003A000000005001100100036004052E1003A0044
:1003B0003B003C003D003E003F0040004100420049
:1003C0003A043B04E00049004C004A004D00E101C2
:1003D00068524500440043003D04010007134904EE
:1003E0004C044A044D04450245043F0440044104C2
:1003F000420443041201110D16013E003E01450066
:1004000000003B003B01E60008134404000000002C
:10041000BC00AD00BB0000000000D400CD00D50042
:10042000D900B20000000000AC00AE00AB00D1006B
:10043000D200CF00CE00D000DA00AF0001000000F3
:10044000AA00A800A90056055705DB00BD00DC0086
:100450004B00B300000000000000000000002C0072
:1004600000002800BE0000004E0001000000000057
:1004700000005200000000000000000060000000CA
:100480000000000000000000500051004F0000007C
:1004900000005C005D005E00000001000000000044
:1004A000000000000000000000000000000000004C
:1004B0000000E50000000000000000002C005800D3
:1004C000000028002C0000000000000000010101D5
:1004D0000101010101010202020202020202020301
:1004E00003030303030303040404040404040505D1
:1004F0000505050606060606070707070708080894
:1005000008090909090A0A0A0B0B0B0C0C0C0D0D42
:100510000D0E0E0E0F0F0F101011111112121313DA
:100520001414151516161717181819191A1A1B1B53
:100530001C1D1D1E1E1F20202122222324242526AF
:1005400026272829292A2B2C2D2D2E2F30313232E7
:10055000333435363738393A3B3C3D3E3F404142F3
:10056000434445464748494A4C4D4E4F50515354D9
:10057000555658595A5B5D5E5F616264656668698D
:100580006B6C6D6F7072737577787A7B7D7E80820D
:10059000838587888A8C8E8F91939596989A9C9E56
:1005A000A0A2A3A5A7A9ABADAFB1B3B5B7BABCBE66
:1005B000C0C2C4C6C9CBCDCFD1D4D6D8DBDDDFE233
:1005C000E4E7E9EBEEF0F3F5F8FAFDFF2203420071
:1005D0004D0034003000200048006F0074007300AC
:1005E00077006100700020005200470042000000C8
:1005F00016034B0050005200650070007500620049
:100600006C006900630000000403090409023B0058
:10061000020100A0FA090400000103010100092100
:1006200011010001224000070581030800010904AF
:1006300001000103000000092111010001227B00DB
:10064000070582032000011201000200000008508B
:100650004B303401000102000105010902A10185AE
:10066000020901A1000509190129081500250195B4
:1006700008750181020501093009311581257F9531
:10068000027508810609381581257F950175088155
:1006900006050C0A38021581257F9501750881062B
:1006A000C0C005010980A101850319012AB7001501
:1006B0000126B700950175108100C0050C0901A144
:1006C00001850419012AA002150126A002950175D1
:1006D000108100C005010906A101050719E029E7FD
:1006E00015002501950875018102950175088101A4
:1006F0000507190029FF150026FF009506750881DA
:1007000000050819012905950575019102950175E6
:10071000039101C011241FBECFEFDAE0DEBFCDBFD1
:1007200004B603FE18C080910C0590910D05A091B0
:100730000E05B0910F058730904BA740B04B59F490
:1007400010920C0510920D0510920E0510920F05D7
:10075000E0E0F8E3099512E0A0E0B1E0ECE0F6E6B5
:1007600002C005900D92AC37B107D9F725E0ACE790
:10077000B2E001C01D92AC30B207E1F70E9409134C
:100780000C9485320C94000081E00E94FD240E94AC
:100790005929089580E00E94FD240E945829089557
:1007A0008B30B8F46430A8F44C3098F450E09CE0FE
:1007B000699F400D511D1124FA0190E3899FE00DBE
:1007C000F11D1124EE0FFF1FE455FF4F8591949109
:1007D000089580E090E008950E94D003089581E09C
:1007E000089581E008950E94F103089508950E94FC
:1007F000F6030895A5E0B0E0E0E0F4E00C94773172
:1008000049835A833091830289819A81311119C0B9
:10081000662399F0222389F00E94110A182F682F6D
:1008200089819A810E94ED0969817A81812F0E94D4
:100830007D102596E3E00C9493310E94FF09182F58
:10084000F3CF0E94110A69817A81F1CFFC01262F32
:10085000408151816281738184810E94FA030895ED
:1008600081E00895CF93DF93EC0160E00E942604BD
:10087000BE010E94F703DF91CF9108950E94AE114F
:1008800008950E94B211089508950E94BC080E9424
:1008900044042FEF84E39CE0215080409040E1F736
:1008A00000C0000008950E9445040E943F2A089558
:1008B0000E9445040E94632A08950F931F93CF93CB
:1008C000DF938C0161E00E942604EC01B8010E94D4
:1008D000F303811106C080E0DF91CF911F910F914A
:1008E0000895B801CE010E941B288823A1F3B80106
:1008F000CE010E94B126882371F3B801CE010E9477
:100900008D27882341F3B801CE010E942826882331
:1009100011F3F8018281882361F0C330FCE7DF071F
:10092000E9F058F4C115ECE7DE07A9F0C130DC4767
:10093000B9F0C8010E94EF03CFCFCB358CE7D807C1
:10094000A9F0CC35ECE7DE0771F0CA35DC4789F752
:100950000E94130EEECF0E945304BDCF0E941B0EC7
:100960000E945804B8CF0E94090EE3CF0E94170ED0
:10097000E0CF0E94C4030E94DE230E94EB0481E0CA
:100980000E94FD2408950E94EF0480E00E94FD244F
:100990000E94CA03089508950E94CB04089581E03F
:1009A00008950895CF93DF93D82F0E94CF04C82FC6
:1009B000882319F08D2F0E94D1048C2FDF91CF91C5
:1009C00008950895CF93C82F0E94CC048C2F0E94C5
:1009D000D204CF91089580E00E94E20408950E941D
:1009E00069280E94E2040895CF930E946928C82FC5
:1009F00080917E028C1779F0C0937E020E94E429D8
:100A000060937F02709380028093810290938202B0
:100A10008C2F0E94E204CF910895ABE0B0E0E3E1B7
:100A2000F5E00C9478314F83588769877A878B87F4
:100A300061110E94540D1E821D8285E0FE013796D1
:100A4000DE01119601900D928A95E1F78C819D81CE
:100A5000892B61F449815A816B817C818D819E81D2
:100A60000E947D0C2B96E2E00C94943189819A814E
:100A700089238F3F79F3CE0101960E9430048111C2
:100A8000E9CFF0CFFC01808191810E94430A089553
:100A9000662329F00E948D130E94601408950E941D
:100AA000E713FACFCF93C82F8823C9F08238C9F44F
:100AB0000E94692881FD13C089E30E940C0D0E94E9
:100AC000750D2FEF87EE93E0215080409040E1F7C5
:100AD00000C0000089E30E94140D0E94750DCF91A3
:100AE00008958338A1F40E94692880FDF8CF83E53A
:100AF0000E940C0D0E94750D2FEF81EE94E02150A5
:100B000080409040E1F700C0000083E5E4CF8438E6
:100B1000A1F40E94692882FDE2CF87E40E940C0DB7
:100B20000E94750D2FEF81EE94E02150804090409F
:100B3000E1F700C0000087E4CECF8CEF8C0F813A44
:100B400090F46C2F8091D3019091D4010E94EB28F6
:100B5000882329F08C2F0E94140D0E94750D8C2F74
:100B60000E940C0DBACF80E28C0F883048F4C77019
:100B700081E001C0880FCA95EAF70E94370DADCF1A
:100B8000EBE5EC0FE33040F4F0E0ED5DFD4F8081EC
:100B900090E00E948F28A3CFE8E5EC0FE93150F4F4
:100BA000F0E0EE0FFF1FEF50FE4F808191810E9419
:100BB000B42895CF83E38C0F833108F090CF61E0A8
:100BC0008C2F0E9448058BCF882309F456C08238A9
:100BD00079F40E94692881FF50C089E30E940C0DBE
:100BE0000E94750D89E30E94140D0E94750D0895F1
:100BF000833859F40E94692880FF3FC083E50E9432
:100C00000C0D0E94750D83E5EECF843859F40E94D7
:100C1000692882FF32C087E40E940C0D0E94750D86
:100C200087E4E1CF9CEF980F913AE8F290E2980FB9
:100C3000983050F4877091E001C0990F8A95EAF7D7
:100C4000892F0E943D0DD1CF9BE5980F933028F45A
:100C500090E080E00E948F28089598E5980F9931E0
:100C600028F490E080E00E94B428089593E3980F60
:100C7000933118F460E00E94480508951F93CF93C4
:100C8000DF93182FEB010E945205209739F4812F32
:100C90000E94E405DF91CF911F9108958FE99FE0B5
:100CA0000197F1F700C000002197EFCF70E060E0FE
:100CB000893311F460E570E00E943E0608958823B0
:100CC00021F00E94370D0E94750D0895882321F0B0
:100CD0000E943D0D0E94750D0895B0E0A0E0E3E78D
:100CE000F6E00C9471316C01D62FC72FFC011281F4
:100CF000F580F2949FE0F9220E942D0DE82E8823C2
:100D0000B9F0E12E1123A1F08C2F807F803421F0E7
:100D100080E28D0F8830D0F08091180482FF16C0D9
:100D200082E00E94D80D0E942D0D91E0E82EE92668
:100D3000BC2EB2948FE0B822FBE0FB1508F468C02B
:100D4000EB2DF0E0E957FD4C0C946231E12CF0CF33
:100D50000C2F0F70C07F11F00295007F112399F0C6
:100D6000002359F080E28D0F883010F0D11107C0B8
:100D7000802F0E94370D0E94750D8D2F41C0802F4E
:100D80000E94470DF8CF8D2F0E94E405002309F43F
:100D90003FC080E28D0F883010F0D11104C0802F49
:100DA0000E943D0D03C0802F0E944D0D0E94750DC5
:100DB0002FC00C2F0F70C07FC03211F00295007F42
:100DC000DD2381F0D13009F468C0112309F472C029
:100DD000FF2009F468C0F601858180FFCECF8F70B7
:100DE000858361C08091180482FD33C0112359F0BE
:100DF000002329F0802F0E94370D0E94750D80E09E
:100E00000E94520505C080E00E94E4050111C7CF91
:100E1000EB2DE850FF0B349720F40E9469280E94C4
:100E2000E204EE2089F00E94290D80FD0DC0F6013C
:100E300012820E94230D0E944B09C6010E947C0869
:100E40000E94230D0E945B09CDB7DEB7E9E00C9448
:100E50008D31112389F0F11006C00E94570D802BAF
:100E60000E945F06D5CF21E0F212F7CF0E94570D06
:100E7000802B0E945E0DCCCFF11006C00E946B0D3E
:100E8000802F0E946606C4CF31E0F31609F2802F4E
:100E90000E9466060E946B0DBBCF112331F085E0E6
:100EA0008F1508F4B5CF802FDBCF94E09F1508F4A1
:100EB000AFCFE6CFFF2021F3D93349F4FFEF27EE80
:100EC00033E0F15020403040E1F700C000008D2FAA
:100ED0000E94E4059DCF8C2F86958695837069F0DE
:100EE000813009F095CF8D2F9C2F9370111102C086
:100EF00080E090E00E94B4288BCF8D2F9C2F9370C0
:100F0000111102C080E090E00E948F2881CF612FF4
:100F10008D2F0E9448057CCF8C2F8370A1F5111175
:100F200077CF4D2F429546954770440F440F2D2F94
:100F30002F7030E0042E02C0220F331F0A94E2F714
:100F400090E080E0D4FF09C08FE090E002C0880FFD
:100F5000991F4A95E2F780959095C695C695C370FE
:100F6000822B932BC23049F058F4C13019F00E9403
:100F70001B094ECF0E9412094BCF0E94240948CF73
:100F80000E940F0945CF8695112311F08C2F817097
:100F9000882309F43DCF4D2F429546954770440F65
:100FA000440F2D2F2F7030E0042E02C0220F331F6C
:100FB0000A94E2F790E080E0D4FF09C08FE090E06F
:100FC00002C0880F991F4A95E2F780959095C695C3
:100FD000C695C370822B932BC23049F058F4C130B0
:100FE00019F00E94860914CF0E947D0911CF0E943A
:100FF0008F090ECF0E9433090BCFCF70112329F038
:101000008C2F0E944B098D2F2BCF8D2F0E946606AF
:101010008C2F0E945B09FCCED23F51F160F4D03F8F
:10102000B9F0D13F81F0112309F449C0F110A5CEE8
:101030008C2F8F7121C0D33F11F1D43FA1F7809144
:10104000180482FD26C08C2F8F71112311F314C058
:10105000112349F084E08F1508F4DACE8C2F8F71BC
:101060000E946D09D5CE95E09F1508F4D1CEF6CF3C
:101070008C2F8F711111CDCF0E944B09C9CE112336
:1010800029F08C2F8F710E943F09C2CE0E943A092D
:10109000BFCE112349F0CF718C2F0E944B0963E022
:1010A0008C2F0E94BA0DB4CE81E00E94D80DE1E0F1
:1010B000EF1508F0ADCE82E00E94D80DA9CEF11058
:1010C000FBCE8C2F8F71A5CF0F931F93CF93DF9300
:1010D000EC01688179818A810E944E0A8C010E940C
:1010E00098090E940E09B801CE010E946D06DF9199
:1010F000CF911F910F910895CF93DF93EC018B81D6
:101100009C81892B29F08881998189238F3F51F413
:10111000DF91CF910895CE010E946408CE010E9414
:101120003204F6CFCE010E945D048111F4CF0E94FB
:101130002D0D882369F38A81882351F38091180447
:1011400082FFE6CF82E00E94D80DE2CF90E080E0FF
:101150000E948F2890E080E00E94B4280E94540DE5
:101160000E94750D0E947C140E94601408950E94D4
:101170001C0D0E94A60808950E94440D0E94B70805
:10118000089592959F70963091F058F4925F9F70F9
:10119000923058F4803F19F030F4883E30F481E00A
:1011A00008959A5FF4CF843FD1F380E00895883E9C
:1011B000B0F3813FD1F7F3CFFC0183819481892B78
:1011C00029F08081918189238F3F11F480E0089577
:1011D000808191810E94430A0E94C1080895A5E080
:1011E000B0E0E5EFF8E00C9478312596E2E00C945D
:1011F0009431A6E0B0E0EFEFF8E00C947831269659
:10120000E2E00C94943108950E94030908950E942D
:10121000040990939F0280939E02089508950E946E
:101220000709089520919E0230919F02822B932BF3
:101230000E940709089520919E0230919F02822307
:1012400093230E940709089520919E0230919F02E6
:10125000822793270E94070908950E940309089591
:101260000E942D0908950E94300990939D02809359
:101270009C02089590E080E00E943309089521E0E7
:1012800030E0A90102C0440F551F8A95E2F7CA0158
:101290000E943309089521E030E002C0220F331F7D
:1012A0008A95E2F780919C0290919D02822B932B6C
:1012B0000E943309089521E030E002C0220F331F5D
:1012C0008A95E2F72095309580919C0290919D023D
:1012D000822393230E943309089521E030E002C065
:1012E000220F331F8A95E2F780919C0290919D0214
:1012F000822793270E943309089520919C02309100
:101300009D02822B932B0E943309089520919C0209
:1013100030919D02822393230E94330908952091E6
:101320009C0230919D02822793270E9433090895E1
:101330000895262F277091E001C0990F2A95EAF7AA
:1013400023E0769567952A95E1F7660F771F660F7C
:10135000771FFA01E60FF71F50E040E0682F70E0BA
:101360008191DF0111979B01042E02C036952795CC
:101370000A94E2F7217021952827292328272C9306
:101380004F5F5F4F4430510559F70895A82FA7705C
:1013900023E0969587952A95E1F7880F991F880F86
:1013A000991FFB01E80FF91F50E040E080E0219118
:1013B00030E00A2E02C0369527950A94E2F7217094
:1013C0003327042E01C0220F0A94EAF7822B4F5FC5
:1013D0005F4F4430510559F70895262F943070F42B
:1013E0008C3060F4682F70E08CE0989F600D711D68
:1013F000112444E852E0822F0E9499090895292F70
:10140000943068F48C3058F490E064E872E03CE08A
:10141000239F800D911D11240E94C609089580E02C
:101420000895B0E0A0E0E7E1FAE00C9471317C01AE
:1014300000919C0210919D0280919E0290919F02CA
:10144000082B192BCFE0D0E0CC24C394D12CBC2E98
:10145000C6010C2E02C0880F991F0A94E2F7802360
:101460009123892B49F4219790F7B12C8B2DCDB77F
:10147000DEB7E9E00C948D31B7018C2F0E94891002
:10148000019789F3F3CFCF93DF93EC010E94110A08
:10149000BE010E948910DF91CF9108951F93CF93D1
:1014A000DF93EB0190918302992339F0CB010E94E5
:1014B000430ADF91CF911F910895882369F0CB01F2
:1014C0000E94110A182F682FCE010E94ED09BE015B
:1014D000812F0E948910EDCFCB010E94FF09182FA8
:1014E000F6CF1F93CF93DF93C091A00216E08091B7
:1014F000A1028C1304C0DF91CF911F910895D0E019
:101500001C9FF0011D9FF00D1124EE55FD4F4081F1
:10151000518162817381848195810E94F9082196AD
:10152000C770E5CF4091D2025091D3026091D402AE
:101530007091D5028091D6029091D7020E94F9084D
:1015400008951F93CF93DF938091D702807F09F096
:1015500049C08091D402882309F444C08091A0023C
:10156000C091A1026091D2027091D302A091D502E4
:10157000B091D602D62FD72316E0C81799F190E084
:10158000109711F0DF3F19F401968770F6CF189F7E
:101590009001199F300D1124F901EE55FD4F418145
:1015A0004713F2CF40814613EFCF42814111ECCF78
:1015B000438154814A1B5B0B483C510528F78091BD
:1015C000D7028F7080618093D702F901E955FD4FF2
:1015D00080818F708061808382ED92E00E947C0820
:1015E0000E94710ADF91CF911F910895A1E1B0E0AF
:1015F000ECEFFAE00C9470318C0185E0F801DE012B
:101600001D9601900D928A95E1F7F801E28082ED36
:10161000C82E82E0D82E6091D5027091D602611555
:10162000710509F44EC19091D2022091D302892F05
:1016300082238F3F09F445C140815181A380B4804A
:10164000F090D402F501E61BF70BFF2009F4EAC085
:101650008091D702382F307FE83CF10508F0A3C015
:1016600031116DC0FE2C251316C0941314C0E11067
:1016700012C08F7080618093D7020E94920AC601C7
:101680000E947C088091D702F80185838F2D619696
:10169000EAE00C948C31A114B10429F0842F852345
:1016A0008F3F09F027C180E0F82FF170DF2E80FF17
:1016B0003CC08091A0022091A10236E0821315C0A7
:1016C0004D875E878D859E850E94430A292F22952E
:1016D0002F702230F0F0243018F59F70F1F0F801EF
:1016E0009581907FD1F4D12C1EC090E0389FF001FD
:1016F000399FF00D1124EE55FD4F6181651306C031
:101700006081641303C06281E6120FC00196877086
:10171000D5CF9F7011F0882331F3805E883018F3A5
:10172000C8010E947C08FD2CB1CFEE2009F4AECF99
:101730008091D70281608093D702F12CA7CF251327
:1017400006C0941304C0F801EE2009F487C0C80154
:101750000E94DC08882319F1EE2009F18091D7025C
:10176000803270F02091D2023091D30238872F83DB
:101770001986BB86AA868C87CE0107960E947C08B4
:1017800086E0F801A2EDB2E001900D928A95E1F7B2
:101790000E94A10A0E94920AFF24F39477CFC80105
:1017A0000E947C08F9CF311113C07A2DB98AA88A1A
:1017B0006E2D89890E94EF0882ED92E00E947C08DC
:1017C00086E0F60111928A95E9F70E94920AB5CF58
:1017D00025130FC094130DC0E1100BC0F8018583D1
:1017E000C8010E947C0886E0F60111928A95E9F70B
:1017F0004DCFC8010E94DC08882389F2EE2079F2DF
:101800008091D702803208F4BBCF2091D202309170
:10181000D3023A8329831B82BD82AC828E83CE01A0
:101820000196ACCFE83CF10508F03EC0FE2CEE205E
:1018300009F4B5CF25132AC0941328C08091D7028C
:1018400080FD1BC0982F907FC1F0F8018583903FE9
:1018500031F0982F907F905F8F70892B8583C8011E
:101860000E947C0886E0F801A2EDB2E001900D92A2
:101870008A95E1F70E94920A09CF86E0F801A2ED6D
:10188000B2E001900D928A95E1F700CFC8010E9465
:10189000DC08811175CF8091D70281608093D702D7
:1018A000C8010E947C08F2CE7A2DB98AA88A6E2DD2
:1018B00089890E94EF0886E0F60111928A95E9F77E
:1018C000D9CFEE2009F46BCFC8010E94DC08F82EB6
:1018D000882309F464CF86E0F801A2EDB2E001901C
:1018E0000D928A95E1F782ED92E00E9442050E94F6
:1018F000A10AC0CF81E08E25D7CEACE0B0E0E3E80E
:10190000FCE00C9477314F83588769877A878B87FF
:101910009C87CE0107960E94F60A882369F08A8583
:101920009B85892B39F04F815885842F85238F3FE4
:1019300009F06BC016E05FC086E0FE013796DE015D
:10194000119601900D928A95E1F78A859B85892BE6
:1019500089F388859F8189238F3F61F32091A102BC
:1019600030E0C9010196877099274091A00248177D
:10197000190671F40E94BC081092A1021092A002F4
:1019800086E0E2EDF2E0DF011D928A95E9F7D2CF21
:1019900096E0929FD001939FB00D1124AE55BD4F9C
:1019A000FE01319601900D929A95E1F78093A10284
:1019B0000E94710ABFCF819FC00111248E559D4F97
:1019C0000E94F60A8823E9F0E091A0021E9FF00130
:1019D0001124EE55FD4F40815181628173818481D4
:1019E00095810E94F9088091A00290E0019687708D
:1019F00099278093A0028091A0029091A10289135F
:101A0000DACF2C96E3E00C94933169857A858B8547
:101A10009C850E94F9088ECF682F8091D301909108
:101A2000D4010E9421290895682F8091D3019091BB
:101A3000D4010E94242908958091D3019091D4016A
:101A40000E94272908958091E002859585958595C6
:101A500008958091E002877008959091E002977058
:101A600081E009F480E008958091EB02089590915F
:101A7000EB02892B8093EB02089580959091EB0205
:101A800098239093EB0208951092EB0208959091A1
:101A9000EA02892B8093EA02089580959091EA02E8
:101AA00098239093EA0208951092EA020895809193
:101AB000E102089508950E945A0D08959091180426
:101AC00092FF08C09091E102981721F08093E10203
:101AD0000E945B0D08958091E102882329F0109205
:101AE000E10280E00E945B0D0895CF93DF93E091C7
:101AF000D301F091D4018091EB028083E091D30176
:101B0000F091D40180819091EA02892B8083909199
:101B1000E102992381F0E091D301F091D401808119
:101B2000892B80838091D3019091D4010E94D92880
:101B300081110E946B0DC091D301D091D40148E076
:101B400050E068ED72E0CE010E94FB31892B59F024
:101B500088E0FE01A8EDB2E001900D928A95E1F7D0
:101B6000CE010E947628DF91CF91089508950E94BA
:101B7000B60D08959091180492FF11C098E0899FC6
:101B800090011124622B6093E0020E944B09809126
:101B9000E0028595859585950E94B70D08950E9470
:101BA0004B0908951092E00280E00E94B70D08955D
:101BB0009091E002809589238093E002282F27707E
:101BC00091F4282F082E000C330B9217130659F0AE
:101BD0009091180492FF07C08595859585950E9480
:101BE0005B090E94D20D08959091180492FB222760
:101BF00020F9281769F080FB92F9909318048091DE
:101C00001704909118040E943C0E82E00E94D80DA7
:101C100008958091180482FB882780F991E0892734
:101C20000E94F40D089581E00E94F40D089580E073
:101C30000E94F40D08956FEF7FEF90E080E00E9426
:101C40005D32089590E080E00E94293221E0873ED5
:101C50009E4F09F020E0822F089582E090E00E94DC
:101C60002132089583E090E00E942132089584E0BB
:101C700090E00E9429320895BC0184E090E00E9427
:101C80005D320895AB01BC018FE090E00E945132BB
:101C90000895AB01BC0183E190E00E9451320895A8
:101CA00060E070E0CB010E94490E089560E070E0B2
:101CB000CB010E94420E0E94500E089567EE7EEF07
:101CC00090E080E00E945D3260E082E090E00E945F
:101CD0003F3260E083E090E00E943F3210929F022A
:101CE00010929E0260E074E184E090E00E945D3218
:101CF00060E086E090E00E943F326FEF87E090E086
:101D00000E943F3240E050E0BA0188E090E00E943B
:101D1000513260E08DE090E00E943F3240E050E0C0
:101D2000BA0188E190E00E94513260E087E190E0E2
:101D30000E943F3240E050E0BA018CE190E00E9406
:101D4000513270E060E080E290E00E945D3240E05D
:101D500050E0BA0188E190E00E9451320E94560E94
:101D600008950E945E0E0895682F8EE090E00E9414
:101D70003F3208950E94E4296093FA027093FB02B7
:101D80008093FC029093FD026093F6027093F70239
:101D90008093F8029093F9020895089508950E949F
:101DA000CE0E089508950E94D20E089583E791E122
:101DB0000E945F280E94CD0E0E94CF0E089581E000
:101DC00008950E94DF0E0895089508950E94E40E7C
:101DD0000E94E50E08950E948F110E94E1040E9466
:101DE000962408950E94CF290E946A120E94EB0E49
:101DF0000E94D30E0895AAE0B0E0E1E0FFE00C9469
:101E00006C310E9480122EEE822E22E0922E64010E
:101E100010E0F601E190F1906F01812F0E94B51161
:101E20001F5F143009F450C0E816F90691F3809151
:101E3000FE0281FD0E94BE110E94E10E682E10E09C
:101E4000812F0E94B5117C01F401A190B1904F0146
:101E50008A159B0591F100E0CC24C394D12CAE24CB
:101E6000BF24C5018C219D21892BF1F07724739427
:101E7000C7018C219D21892B09F4712C662079F0F2
:101E80000E831F8378860E94D8298160782F9A87D5
:101E900089874E815F8168858A850E940D05472D5F
:101EA000602F812F0E942F200F5FCC0CDD1C0C3087
:101EB000C1F6F4013297F182E0821F5F143009F01D
:101EC000BFCF0E94BA0E22C0E816F90609F0AFCFC4
:101ED0000E94D8298C018091EC029091ED020817A4
:101EE0001907A1F08FEF89838A831B820E94D8296A
:101EF0008160782F9D838C8349815A816B818D818C
:101F00000E940D051093ED020093EC020E94DE2367
:101F10000E949E140E94F4042A96EEE00C948831EC
:101F2000CF93DF930E948E10EC01811520E592077C
:101F3000D0F5811530E4930708F086C0803E910506
:101F400018F58D3C910508F07DC0883A910570F434
:101F5000853A910508F06EC08130910501F1009736
:101F6000F1F00497E0F4D0E0C0E019C0813C9105A5
:101F7000D0F7C85AD0E0CC0FDD1FCA5DDD4F099005
:101F8000D881C02DD4640BC08115904208F0A8C040
:101F9000C11581E0D80718F4C83ED10520F7CE015D
:101FA000DF91CF910895803622E5920710F58034B5
:101FB00032E5930708F052C08032924508F047C0DE
:101FC000C11582E5D80708F47DC02C2F26952695EB
:101FD00040E2249F900111248C2F8370C1E0D0E057
:101FE00002C0CC0FDD1F8A95E2F7C22BD32BDD6830
:101FF000D6CF803A22E5920760F4803832E5930725
:1020000008F441C0CF71D0E0DC2FCC27C46FD06A78
:10201000C6CF803C42E5940708F449C0C03E82E543
:10202000D80708F0A0CFDC2FCC27CC27DF71C06FFA
:10203000D06AB5CFC55AD0E0C85ADD4FC881D0E0CC
:10204000D064ADCFD065ABCFDF70D06AA8CFCF71F1
:10205000D0E0DC2FCC27C16FD06AA1CF282F2695E6
:102060002695277080E2289F900111248C2F837081
:10207000C1E0D0E002C0CC0FDD1F8A95E2F7C22B91
:10208000D32BDC688CCF282F26952695277040E22D
:10209000249F900111248370C1E0D0E002C0CC0FD6
:1020A000DD1F8A95E2F7C22BD32BDA6878CF8F71C8
:1020B0000E943011C82FD0E0DC2FCC27CC27DF7155
:1020C000D0626DCF8C2F8F710E94301135E0D69584
:1020D000C7953A95E1F7CF709C2FEC01D0695FCF9F
:1020E0008D2F8F710E94301190E0982F88278827BC
:1020F0009F719C012C2BE901E3CF462F743030F403
:102100006C3020F4672F0E94EC03089590E080E08B
:1021100008950E947D100E94900F089582389105C5
:10212000B9F1B0F48133910509F47DC048F48932E6
:10213000910509F46DC08A32910509F47BC00895B8
:102140008533910509F45FC08933910509F108953C
:10215000833E9105D9F138F4803E910529F1823E04
:10216000910579F10895863E9105D9F1873E910553
:1021700009F43EC0843E910541F52091180421FFE9
:1021800024C08091170484FD19C087EE90E0089563
:1021900020911704237009F05AC02091180423FFDE
:1021A00014C089E290E008952091170420FD38C002
:1021B0003091180430FF09C024FF43C090E080E054
:1021C00008952091170422FDF7CF08952091170458
:1021D00022FD3AC03091180430FD39C024FFF5CFFC
:1021E000EDCF2091170423FFF0CF24FDE7CFCDCF13
:1021F0002091170423FD2EC03091180431FFEECF3B
:1022000084EE90E008952091170425FFDECFC9CF1A
:102210002091170425FD21C02091180423FFD5CF5C
:1022200089E390E0D2CF2091170426FFCECF8AE237
:1022300090E008952091170426FFC7CF81E390E036
:10224000089583EE90E0089582EE90E0089580EE88
:1022500090E0089586EE90E0089585E390E008957B
:102260009091170492FF06C0282F28712830F9F4A6
:10227000877F846093FF06C0282F28712831F1F4EE
:10228000877E84612091180420FF06C0382F3871A2
:102290003830D9F4877F816021FF06C0282F28714C
:1022A0002831D1F4877E816194FD877E0895282F9F
:1022B00024712430F9F68B7F8860DCCF282F2471BD
:1022C000243101F78B7E8861DDCF382F31713130B9
:1022D00019F78E7F8860E0CF282F2171213121F7F7
:1022E0008E7E8861E1CF80E008950E941B0E0895E4
:1022F0000E9480128FE39CE90197F1F700C0000073
:102300000E94801280E00E94B51180FF04C00E94EC
:1023100075110E943F2A08950E94781108950E9425
:10232000220E811102C00E94B10E0E942D0E8093D8
:10233000FE020E94370E90931804809317040E94A7
:102340008C110E94320E90E00E940F0980919C0235
:1023500090919D020E943009089508950E94AD1148
:10236000089508950E94B1110895E82FF0E0EE0F4E
:10237000FF1FEF5DFB4F808191810895089580EAF2
:102380008A95F1F7089500C008950E94BF1108953D
:10239000F894E82FE295EF70F0E031A1282F2F702C
:1023A00081E090E001C0880F2A95EAF7982F909578
:1023B000932391A392A1892B82A378940895CF931C
:1023C000DF9383E30E94C81182E30E94C81186EC68
:1023D0000E94C81185E30E94C811CBE5D2E0899123
:1023E0008F3F11F00E94C81182E0C736D807B9F7B5
:1023F000DF91CF910895AF92BF92DF92EF92FF925B
:102400000F931F93CF93DF938C01D62EC62FD0E06E
:10241000CE0189599D4F7C01FC0120812F3F09F499
:102420004CC0F894E22FE295EF70F0E031A12F70EC
:1024300081E090E001C0880F2A95EAF7932F982B4E
:1024400091A392A18095892382A378940E94C311BD
:10245000EBE5F2E041E050E0B12CA12C21912F3FBF
:10246000B1F1A22FA295AF70B0E090968C9190E060
:102470002F7002C0959587952A95E2F780FD27C0B9
:10248000CA01A82AB92A440F551F82E0E736F80787
:1024900029F7F70180818F3F11F00E94C81161E098
:1024A000A114B10409F460E08D2D0E94C511CC0F78
:1024B000DD1FC00FD11FB982A882DF91CF911F917C
:1024C0000F91FF90EF90DF90BF90AF90089590E054
:1024D00080E0D7CF0E94DF1188E0E1E2F4E0DF0185
:1024E000982F1D929A95E9F7E9E1F4E0DF011D923A
:1024F0008A95E9F784E00E94BB120E943E04089589
:10250000A8E0B0E0E6E8F2E10C9475318E010F5FCF
:102510001F4F88E0F80111928A95E9F7F12C6F2D91
:10252000C8010E94FB11F394F4E0FF12F8CF48E0D9
:1025300050E0B80189E194E00E94FB3121E000976E
:1025400009F420E0892B41F088E0F801A9E1B4E02A
:1025500001900D928A95E1F744E061E274E089E12F
:1025600094E00E94BC12182F0E944104812F2896EB
:10257000E5E00C9491310895CF92DF92EF92FF92B3
:102580001F93CF93DF936C017B01C42F222349F06B
:1025900081E0809301030E94D829909300038093E7
:1025A000FF021091010311110AC010E0812FDF9189
:1025B000CF911F91FF90EF90DF90CF900895809181
:1025C000FF02909100030E94F029059770F3D0E07C
:1025D000CC0FDD1FAE01B601C7010E94FB31892B74
:1025E00041F0AE01B601C7010E940832109201030A
:1025F000DDCF10E0FBCF0E94C82B0E94F20E0E949C
:10260000D52B08950E94DA2B0E94FB0E0E94F42B1A
:1026100008950E9471290E94AE2B0E94D60E0E943E
:10262000FB120E9402130E94E60EFBCF809108036A
:1026300080FF0DC06091DA0170E0660F771F60388F
:10264000710570F56115710569F1862F089581FF97
:1026500007C06091DA0184E0689FB0011124EFCFD8
:102660006091DA0182FD0AC0809107038823A9F0F6
:102670002091D9016091DA01821710F088E0ECCF47
:10268000869FC001112433E0880F991F3A95E1F726
:10269000622F70E00E940D31D2CF68E070E0D5CF9C
:1026A0008FE7089581E008958091080380FF0CC0B2
:1026B0006091D60170E07595679575956795611580
:1026C000710549F1862F089581FF06C06091D601FA
:1026D00070E075956795F3CF6091D60182FD0BC0D0
:1026E000909106039923A1F06091D5018091D601C4
:1026F000961738F0682F70E06038710500F38FE7A7
:102700000895899FC001112470E00E940D31F4CF1B
:1027100061E070E0D7CF81E008958D3C31F40E94F4
:102720001613819580930C0308958E3C19F40E9432
:102730001613F8CF8F3C31F40E94161381958093C5
:102740000B030895803D19F40E941613F8CF893DBC
:1027500029F40E94541380930D0308958A3D21F4B7
:102760000E9454138195F7CF8B3D31F40E9454138E
:10277000819580930E0308958C3D19F40E945413A3
:10278000F8CF9FE2980F983070F4815D990B21E0AB
:1027900030E001C0220F8A95EAF780910A03822B6C
:1027A00080930A0308958D3D31F480910803816080
:1027B0008093080308958E3D21F480910803826080
:1027C000F7CF8F3DB9F7809108038460F1CF409136
:1027D0000B038D3C59F480910C0387FF0DC01092C0
:1027E0000C0341110BC01092070308C08E3C81F40A
:1027F00080910C0318169CF3442381F080910D0303
:1028000090910E03892B09F05AC010920603089587
:102810008F3C49F447FFF0CF10920B0380910C03DB
:102820008111ECCFE0CF803D19F41416ACF3E4CF66
:1028300090910D03893D29F41916F4F610920D03B9
:10284000DBCF8A3D19F497FFD7CFF8CF90910E03D5
:102850008B3D29F497FFD0CF10920E03CDCF8C3D46
:1028600019F41916CCF3C8CF9FE2980F983090F462
:10287000815D990B21E030E0B90102C0660F771F3E
:102880008A95E2F7CB01809590910A038923809382
:102890000A03B2CF8D3D31F4809108038E7F80937F
:1028A0000803AACF8E3D21F4809108038D7FF7CFD6
:1028B0008F3D09F0A1CF809108038B7FF0CF089561
:1028C0000E94D8299C0190910B0380910C03982BB6
:1028D00021F0309305032093040390910D03809120
:1028E0000E03982B21F0309303032093020389E019
:1028F00093E00E948128089586E0E9E0F3E0DF019B
:102900001D928A95E9F71092070310920603109220
:1029100008030895FC01828181110EC08381811119
:102920000BC08481811108C091E08581811101C0B3
:1029300090E0892F8170089581E0FCCFA6E0B0E09F
:10294000E4EAF4E10C94773186E0E9E0F3E0DE01BB
:10295000119601900D928A95E1F710920B03109257
:102960000C0310920D0310920E038B819C81892B16
:1029700089F080910403909105030E94F029AC0135
:10298000909107039923C9F18091DB018417150603
:1029900008F440C08D819E81892B91F080910203C3
:1029A000909103030E94F029AC01909106039923B2
:1029B00009F471C08091D7018417150608F479C015
:1029C000BE016F5F7F4F89E093E00E942E29811145
:1029D00005C089E093E00E948A1481110E9460146E
:1029E00086E0FE013196A9E0B3E001900D928A9550
:1029F000E1F72696E3E00C9493312091DC018AE024
:102A0000289F900111242417350720F69F5F90938B
:102A1000070302C09F3FD1F71B81112359F00E9489
:102A200016139FEF11160CF491E0899F802D11244D
:102A300080930B031C81112359F00E9416139FEF02
:102A400011160CF491E0899F802D112480930C03C2
:102A500030910B03332309F49DCF20910C032223E3
:102A600009F498CF45EB3403C0011124992359F0A0
:102A700090930B0345EB240390011124332339F089
:102A800030930C0387CF81E080930B03F3CF81E079
:102A900080930C037FCF2091D8018AE0289F90017A
:102AA00011242417350708F08BCF9F5F90930603FE
:102AB00002C09F3FD1F71D81112359F00E9454138A
:102AC0009FEF11160CF491E0899F802D11248093C3
:102AD0000D031E81112359F00E9454139FEF11160C
:102AE0000CF491E0899F802D112480930E03309186
:102AF0000D03332309F464CF20910E03222309F43C
:102B00005FCF45EB3403C0011124992359F0909312
:102B10000D0345EB240390011124332339F0309346
:102B20000E034ECF81E080930D03F3CF81E08093BD
:102B30000E0346CFEF92FF920F931F93CF93DF9335
:102B4000EB01E82FD1110EC0442321F0F0E0E45353
:102B5000FB4FE4916E2F7E2F8E2FCDB7DEB7E6E0D0
:102B60000C9490310D2F10E0282F30E0442329F0F1
:102B700024533B4FF901249130E0F6E0CF9FC00190
:102B80001124EFEFF0E0BF010E94F930AB018C2F70
:102B900090E0880F991FA5E5A49FB001A59F700D37
:102BA0001124861B970B982F990F980FBF01601B5C
:102BB000710B629FD001639FB00D729FB00D112405
:102BC0008B2F9D9FB0011124672F7727EF01C61B24
:102BD000D70BBE01629FE001639FD00D729FD00DA5
:102BE00011247F01E91AF108E09EB001E19E700D09
:102BF000F09E700D1124672F7727E61BF70BE29FDD
:102C00008001E39F100DF29F100D1124E12F722F10
:102C10004230510599F048F44115510569F04130B1
:102C2000510581F0EB2F8D2F07C04430510569F01D
:102C300080F046305105B1F76E2F8FCFE22F7B2FFA
:102C4000812FFACFE22F7D2FF7CFEB2F822F712F1D
:102C5000F3CF7B2F822FED2FEFCF41E00E949A150B
:102C6000089530E020E0869F212D969F200D311D94
:102C70001124C9010895AC018230910508F408952A
:102C80009FEF413E8EE1580740F49A0195E036955A
:102C900027959A95E1F798E0920F61E0E62FE90F0A
:102CA000FF27FF1F9F0135952795822F229FF00157
:102CB000239FF00DF00D11244E175F0738F49FEF9E
:102CC000920F961758F78FEF860F08952F3FE9F36D
:102CD00061E0620FF6CF4091E3015091E40125E0FD
:102CE00038E0429FC001439F900D529F900D1124E8
:102CF000875E994C9093E4018093E301890F0895D6
:102D0000E82F86FDE0952E2F2F7086FD2F5FE6952C
:102D1000E695E695E670F0E0E559FD4F9181929FCA
:102D2000902D212D112492959F702295207F922B1A
:102D30002081920F87FD919580E8890F0895E42FF7
:102D4000F0E0EE0FFF1FEC5CFE4F408134EE439F3E
:102D5000412D1124E72FF0E050E0445E5F4FDA018F
:102D6000A21BB1099D01B7FF03C03195219531091F
:102D700093E0220F331F9A95E1F7AF01421B530BEB
:102D80009A0157FD20E0279F212D1124722F0895CD
:102D9000E42FF0E0EE0FFF1FEC5CFE4F408134EEBD
:102DA000439F412D1124E82FF0E050E0445E5F4F37
:102DB000DA01A21BB1099D01B7FF03C0319521952E
:102DC000310993E0220F331F9A95E1F7AF01421BBF
:102DD000530B9A0157FD20E0582F259F212D1124D8
:102DE000822F0895622F0895E42FF0E0EE0FFF1F69
:102DF000EC5CFE4F6081621B0895E42FF0E0EE0F63
:102E0000FF1FEC5FFE4F61A9621B0895322F50E057
:102E1000FA01EE0FFF1FEC5FFE4F91A9905297FD54
:102E20009195440F551FFA01EC5CFE4F2081231B46
:102E3000330B290F311D97FD3A95620F0895EF92DC
:102E40000F93972F23E0029FB0011124759567958A
:102E50006E0D792F0F91EF9008950F93CF93DF931D
:102E6000D72FC82F47FD419588E390E0841B910937
:102E700047FD9395889FB001899F700D700D1124B7
:102E8000229FC001239F900D900D1124860F971F44
:102E90000E943B16982F990F890F682F600F7D2F86
:102EA0008C2FDF91CF910F9108950F931F93522F85
:102EB00010E0F801EE0FFF1FEC5FFE4FA1A9A0523A
:102EC000BB0B9D015203F001539FF00D1124000F25
:102ED000111FD801AC5CBE4F0C910057110B400381
:102EE0009001419F300D11242E0F3F1F37FF02C06C
:102EF00021583F4F220F232F221F330B620F1F91A8
:102F00000F9108950F931F93522F10E0F801EE0FC9
:102F1000FF1FEC5FFE4FA1A9A052BB0B9D01520306
:102F2000F001539FF00D1124000F111FD801AC5C6C
:102F3000BE4F0C910057110B40039001419F300D83
:102F400011242E0F3F1F37FF02C0215C3F4F96E038
:102F5000359527959A95E1F7620F1F910F91089586
:102F60000F931F9310E0F801EE0FFF1FEC5CFE4F74
:102F70009081905797FD9195000F111FF801EC5F1C
:102F8000FE4F01A90052110B2003F001219FF00D0B
:102F9000112408E310E0091B110997FD1395400364
:102FA0009001419F300D1124E20FF31F9F01220F6A
:102FB000331F2E0F3F1F37FF02C021583F4F220FF4
:102FC000232F221F330B620F1F910F9108950F9330
:102FD0001F93CF93DF938B01D82FC42F822F0E9492
:102FE0008016EC2FF0E0EE0FFF1FEC5CFE4F90819F
:102FF0009058890F87FD8195880F682F2CE0629F7C
:10300000612D1124600F712F8D2FDF91CF911F91B2
:103010000F910895E42FF0E0EE0FFF1FEC5CFE4FE0
:103020009081921B97FD9195292F38E1239F212DA7
:103030001124620F089520912D0430E1230F08F42C
:103040002FEF60E1822F90E00E943116BC0188EBE7
:103050009BE00E94F93090E080E008954095282F91
:10306000429F412D1124842F089522E8241B08F447
:1030700020E0620F0895EF92FF920F93970195E081
:10308000099F200D311D11242F3F310519F010F03B
:103090002FEF30E02095382F320F08F43FEF832FC9
:1030A0000F91FF90EF900895EF92FF920F931F936F
:1030B0000E0D1F2D111DF90137FF03C0F195E1958C
:1030C000F10924E0EE0FFF1F2A95E1F7EF3FF1052C
:1030D00019F014F0EFEFF0E09A0157FF03C03195BB
:1030E0002195310994E0220F331F9A95E1F72E17AD
:1030F0003F070CF4F901E00FF11FEF3FF10519F064
:1031000010F0EFEFF0E0E095282F3E2F230F08F4AA
:103110002FEF822F1F910F91FF90EF900895EF9264
:10312000FF920F93972F093438F4B701601B710990
:103130006F3F710519F010F06FEF70E0485F5F4F5F
:103140004131510540F0A901485F5F4F41315105C0
:1031500010F06FEF70E06095482F460F08F44FEFC6
:10316000842F37FF02C02D5F3F4F3595279535954A
:10317000279560912A04620F792F0F91FF90EF90AD
:103180000895EF92FF920F939701201B31092F3F73
:10319000310519F010F02FEF30E0322F3095482F25
:1031A000430F08F44FEF842F620F0F91FF90EF90C1
:1031B0000895EF92FF920F939701201B31092F3F43
:1031C000310519F010F02FEF30E02095382F320F35
:1031D00008F43FEF832F0F91FF90EF9008959091A7
:1031E000D203892B8093D2030895FC019B010097A1
:1031F00029F480E077FF2BC080E80895AC0197FFA9
:1032000004C044275527481B590BB901640F751F8B
:1032100037FD10C0241B350BC901A5E0880F991F8D
:10322000AA95E1F70E940D3180E2861BF7FF0FC0DF
:1032300081950895CB0165E0880F991F6A95E1F7A4
:10324000BA01621B730B0E940D3180E6EECF089528
:103250000F931F93CF93DF93D62F172FC82FC9013A
:10326000272F201B022FBA010E94F518982F990FC3
:10327000990F782F791B700F719F712D11246D2F6D
:103280008C2FDF91CF911F910F9108950F931F9372
:10329000CF93DF93D62FC72F182FC901212F201BC3
:1032A000022FBA010E94F518982F990F990F891BC8
:1032B000800F282F219F212D1124822F6D2F7C2FED
:1032C000DF91CF911F910F910895EF920F931F936C
:1032D000CF93DF93D62F172FC82FC9010E19070FD1
:1032E000BA010E94F518702F781B719F712D11245F
:1032F0006D2F8C2FDF91CF911F910F91EF9008953B
:10330000EF920F931F93CF93DF93D62FC72F182FD2
:10331000C9010E19010FBA010E94F518081B202FD0
:10332000219F212D1124822F6D2F7C2FDF91CF9192
:103330001F910F91EF9008950F93CF93DF93D72FA5
:10334000C82FC901BA010E94F518682F600F7D2FA0
:103350008C2FDF91CF910F910895EF920F93CF9320
:10336000DF93D72FC82FC9010E19BA010E94F51893
:10337000602F681B7D2F8C2FDF91CF910F91EF90E5
:10338000089546E050E06CE170E089E294E00E942C
:103390002F321092D20308950E942D160895E9E26B
:1033A000F4E085E380838091EE019091EF01A0919C
:1033B000F00181839283A3838FE784838FEF8583DA
:1033C0000E94C119089580E008950F931F93CF9331
:1033D000DF93C82FD62F8A010E94E3199CE0C99F72
:1033E000B00111246C5F7E4F6D0F711DFB01908148
:1033F0009F3F29F0F801E80FF11D90838F5FDF9167
:10340000CF911F910F910895E0917902F0917A0286
:1034100009950895E0917502F09176020995089555
:10342000B0E0A0E0E6E1FAE10C9469313C012B0147
:10343000FC01C0818BE0C89FC02D11241BE01C0F34
:10344000F12E163310F035E3F32E60912D046695BE
:1034500080912F04909130040E943116382ED0E0D4
:10346000CE01880F991F9C012C5F3E4F6901CF153B
:1034700048F081E0153308F080E0CDB7DEB7E1E138
:103480000C948531FE01E256FE4F8081F30191815B
:10349000892379F1F60180A9282F2057330B590190
:1034A00081A9E82FE052FF0B4F01AA9C9001AB9C31
:1034B000300D300D1124EE9FC001EF9F900D900D47
:1034C0001124820F931F0E943B16082F60912A043B
:1034D00070912B0480912C04E32C9401A501F2013E
:1034E00009950E94CC19462F282F672FCE010E94E4
:1034F0000A1AF2E0CF0ED11C2196B9CF65E679E128
:103500000E94101A089560E879E10E94101A089547
:103510006FE177E10E94101A08956DEA79E10E9447
:10352000101A0895B0E0A0E0E8E9FAE10C946E31D9
:103530005C016B01FC01C0818BE0C89FC02D112490
:103540001BE01C0F912E163310F035E3932E609183
:103550002D04669580912F04909130040E943116BD
:10356000882ED0E0CE01880F991F9C012C5F3E4F22
:103570007901C91548F081E0153308F080E0CDB736
:10358000DEB7ECE00C948A31FE01E256FE4F8081FA
:10359000F50191818923C1F0F70121A92052330B54
:1035A00040A94057550B60912A0470912B048091DB
:1035B0002C04082DF60109950E94CC19462F282FBE
:1035C000672FCE010E940A1AF2E0EF0EF11C21963D
:1035D000D0CF68E279E10E94921A089566E479E119
:1035E0000E94921A08956DE277E10E94921A08955E
:1035F0006CE979E10E94921A0895B0E0A0E0E3E05E
:10360000FBE10C9471317C018B01FC01C0818BE0EA
:10361000C89FC02D11249BE0D92EDC0ECD2CF5E3E4
:10362000FD1510F485E3C82E60912D04669566950E
:1036300021E0620F08F46FEF80912F049091300425
:103640000E943116B82ED0E0CC1550F081E094E302
:103650009D1508F480E0CDB7DEB7E9E00C948D311C
:10366000FE01E256FE4F8081F7019181892391F09E
:1036700060912A0470912B0480912C042B2D4C2FE7
:10368000F80109950E94CC19462F282F672FCE01EB
:103690000E940A1A2196D8CF6FE976E10E94FD1A9E
:1036A000089568EC76E10E94FD1A089562EF76E1D4
:1036B0000E94FD1A089564EF76E10E94FD1A0895B4
:1036C0006DEF76E10E94FD1A089566E077E10E94B1
:1036D000FD1A089567EE77E10E94FD1A08956AE0E9
:1036E00078E10E94FD1A0895B0E0A0E0EAE7FBE16E
:1036F0000C946D315C016B01FC01C0818BE0C89FB3
:10370000C02D11241BE01C0F912E163310F035E351
:10371000932E60912D046695669580912F0490916B
:1037200030040E943116F82E80E48F0D0E9480161E
:1037300090E8892E880E8F2D0E94801620E8722E28
:10374000780ED0E0C91548F081E0153308F080E02C
:10375000CDB7DEB7EDE00C948931FE01E256FE4FA5
:103760008081F50191818923A1F060912A047091F3
:103770002B0480912C04EF2C0C2F272D482DF601C3
:1037800009950E94CC19462F282F672FCE010E9441
:103790000A1A2196D7CF65E577E10E94741B089538
:1037A00062E877E10E94741B089560EB77E10E9464
:1037B000741B0895B0E0A0E0E0EEFBE10C947031E2
:1037C0008C017B01FC01C0818BE0C89FC02D1124BE
:1037D0002BE0B22EBC0EAB2CF5E3FB1510F495E3F9
:1037E000A92E20912D0431E0230F08F42FEF30E0B3
:1037F00050E040E06FEF7FEF80E090E00E944331C7
:103800006901D0E02C2FCA1550F081E0F4E3FB15DC
:1038100008F480E0CDB7DEB7EAE00C948C31FE010D
:10382000E256FE4F8081F8019181892311F1409188
:1038300033044150042E000C550B47FF1CC0C60139
:1038400060912D0421E0620F08F46FEF0E943116A1
:10385000AC0160912A0470912B0480912C04F70133
:1038600009950E94CC19462F282F672FCE010E9460
:103870000A1A2196C7CFFA01ED5CFB4F81898213AA
:103880000AC0FA01EE0FFF1FED5CFB4F818D928D98
:103890008C159D05A8F241505109CFCF6EE278E119
:1038A0000E94DA1B089565E378E10E94DA1B08950F
:1038B000ABE0B0E0EEE5FCE10C9468318C832B01C9
:1038C0005F834E83FB01F0818BE0F89F802D1124F4
:1038D0008983855F8A838B83863310F025E32B836E
:1038E000309133043D839981892F90E09B878A87AB
:1038F000880F991FFC01EC5FFE4F6F01FC818F2F39
:1039000090E09C012F5F3F4F39872887EB81FA8534
:10391000FE1748F081E02A81253308F080E02B96DD
:10392000E2E10C948431EA85FB85E256FE4F80810A
:10393000F2019181892301F120902A0430902B0417
:10394000288539852D5C3B4F39013C81398310E056
:1039500029813D812317C8F020912C04129F112D3D
:103960001124B101812F0E94CC19462F282F672FD7
:103970008A859B850E940A1A8A859B8501969B876A
:103980008A8792E0C90ED11CC1CFF30181913F011A
:10399000F601A0A8A81ABB0881A8F3018781881A9C
:1039A0009908AA9C9001AB9C300D300D1124889C85
:1039B000C001899C900D900D1124820F931F0E94CD
:1039C0003B16082F60912D0421E0620F08F46FEF81
:1039D000F301EE0FFF1FE353F440858996890E949F
:1039E00031167C019401A501B101812FEE81FF8187
:1039F00009951B01F981FF5FF983182FA9CF209149
:103A0000330431E0231B08F420E04BE358E1BC0110
:103A1000822F0E94581C08954BE358E1BC0180E0BE
:103A20000E94581C08952091330431E0231B08F4B0
:103A300020E044E558E1BC01822F0E94581C089503
:103A400044E558E1BC0180E00E94581C0895209193
:103A5000330431E0231B08F420E04FE858E1BC01B7
:103A6000822F0E94581C08954FE858E1BC0180E065
:103A70000E94581C08952091330431E0231B08F460
:103A800020E041EC58E1BC01822F0E94581C0895AF
:103A900041EC58E1BC0180E00E94581C089520913F
:103AA000330431E0231B08F420E049ED58E1BC0168
:103AB000822F0E94581C089549ED58E1BC0180E016
:103AC0000E94581C0895B0E0A0E0E9E6FDE10C94E6
:103AD00071317C01FC01C0818BE0C89FC02D112495
:103AE0001BE01C0F012F163308F005E360912A0438
:103AF00070912B0480912C040E94CC19D62EC72ED5
:103B0000B82ED0E0C01748F081E0153308F080E00F
:103B1000CDB7DEB7E9E00C948D31FE01E256FE4FE1
:103B20008081F7019181892331F02B2D4D2D6C2D52
:103B3000CE010E940A1A2196E5CFB0E0A0E0E3EAA8
:103B4000FDE10C946E317C01FC01C0818BE0C89FCB
:103B5000C02D11241BE01C0F012F163308F005E3C4
:103B6000C0902B04D0902C04D0912A046D2F7C2D72
:103B70008D2D0E94CC19B62EA72E982E60912D0463
:103B80006D0F7C2D8D2D0E94CC19D62EC72E882E20
:103B9000D0E0C01748F081E0153308F080E0CDB7E1
:103BA000DEB7ECE00C948A31FE01E256FE4F9081C4
:103BB000F7018181892359F0282D4D2D6C2D90FD21
:103BC00003C0292D4B2D6A2DCE010E940A1A219681
:103BD000E0CFB0E0A0E0EFEEFDE10C9471317C01AC
:103BE000FC01C0818BE0C89FC02D11241BE01C0F7D
:103BF000D12E163310F095E3D92EC0902B04B0903F
:103C00002C0420912D0400E4029F012D1124D0E00A
:103C1000CD1548F081E0153308F080E0CDB7DEB770
:103C2000E9E00C948D31FE01E256FE4F8081F701F0
:103C300091818923B9F0FE01EE0FFF1FEC5FFE4F6B
:103C400081A982958F7060912A04809F600D112454
:103C50007C2D8B2D0E94CC19462F282F672FCE014B
:103C60000E940A1A2196D4CFB0E0A0E0EAE3FEE178
:103C70000C9471318C01FC01C0818BE0C89FC02D78
:103C800011245BE0F52EFC0EDF2CF5E3FF1510F49C
:103C900045E3D42EC0902B04B0902C0420912D0429
:103CA00030E4E32E3E2D329F312D1124E32ED0E05F
:103CB000CD1550F081E034E33F1508F480E0CDB736
:103CC000DEB7E9E00C948D31FE01E256FE4F8081B3
:103CD000F80191818923D9F0FE01EE0FFF1FEC5FFF
:103CE000FE4F60A9E69EB001112495E07595679599
:103CF0009A95E1F780912A04680F7C2D8B2D0E9404
:103D0000CC19462F282F672FCE010E940A1A219620
:103D1000CFCFB0E0A0E0EFE8FEE10C9471318C0170
:103D2000FC01C0818BE0C89FC02D11249BE0F92EBF
:103D3000FC0EEF2CF5E3FF1510F485E3E82ED09090
:103D40002A04D0912B04C0902C0460912D04669518
:103D50006695669580912F04909130040E943116EB
:103D60000E948016805887FD8195880F282F3C2D52
:103D7000239F212D1124822F6D2D7D2F0E94CC1980
:103D8000D62EC72EB82ED0E0CE1550F081E024E319
:103D90002F1508F480E0CDB7DEB7E9E00C948D3143
:103DA000FE01E256FE4F8081F8019181892331F0B6
:103DB0002B2D4D2D6C2DCE010E940A1A2196E4CF99
:103DC000B0E0A0E0E6EEFEE10C9473318C01FC0162
:103DD000E256FE4F8081682349F1D0902B04D091A8
:103DE0002C04C0912A04EC2EF12C0E946B16282F73
:103DF000C7018C549F4F68E671E00E940D318E1907
:103E00009F0997FD039695958795959587952370BE
:103E10006C2F289F600D11247D2D8D2F0E94CC19B1
:103E2000462F282F672FC8010E940A1ACDB7DEB788
:103E3000E7E00C948F31FF920F931F93CF93DF93A2
:103E40008C01FC01C0818BE0C89FC02D11248BE048
:103E5000F82EFC0E8281D0E081112DC060912D04DE
:103E600020E1620F08F46FEF80912F0490913004ED
:103E70000E9431166AE070E00E94F930892B59F4F3
:103E80000E946B1665E30E94ED30F8016181892F75
:103E900090E00E94E01E81E094E39F1508F480E02A
:103EA000CDB7DEB7E5E00C949131F8016181CE0128
:103EB0000E94E01E21968F2DF5E3FF1508F485E39F
:103EC0008C171D0609F08CF7E6CF1F93CF93DF9375
:103ED000EC01FC01E256FE4F80816823B1F00E94A4
:103EE000EB31182F0E94EB318F77782F20E8720F7B
:103EF00008F47FEF612F80912C040E94CC19462F8B
:103F0000282F672FCE010E940A1ADF91CF911F91AF
:103F10000895B0E0A0E0EFE8FFE10C9473318C016C
:103F2000FC01C281C11122C060912D0420E1620F09
:103F300008F46FEF80912F04909130040E943116A5
:103F400065E070E00E94F930892B51F40E94EB315A
:103F500065E370E00E940D31F80161810E94651FE8
:103F60008C2FCDB7DEB7E7E00C948F31C0818BE0AA
:103F7000C89FC02D11248BE0D82EDC0E8D2DF5E3CB
:103F8000FD1508F485E3D0E0E82EF12CCE15DF0511
:103F900034F0C1E0F4E3FD1518F7C0E0E1CFF8011B
:103FA0006181CE010E94651F2196F0CFB0E0A0E0B4
:103FB000ECEDFFE10C9471317C01FC01C0818BE0E0
:103FC000C89FC02D11241BE01C0F012F163308F0D1
:103FD00005E3C0902B04D0902C04D0912A0460916A
:103FE0002D0466956695669580912F049091300416
:103FF0000E9431160E948016805887FD8195880F97
:10400000682F2CE0629F612D11246D0F7C2D8D2D6A
:104010000E942D16D62EC72EB82ED0E0C01748F01D
:1040200081E0153308F080E0CDB7DEB7E9E00C940D
:104030008D31FE01E256FE4F8081F7019181892387
:1040400031F02B2D4D2D6C2DCE010E940A1A219698
:10405000E5CFE0917702F091780209950895CF922B
:10406000DF92FF920F931F93CF93DF93CDB7DEB70D
:1040700028970FB6F894DEBF0FBECDBF182F062FBE
:10408000F42E0E94DF0E882309F44CC0FF2009F4AF
:1040900057C0AE014F5F5F4F602F812F0E94E5191F
:1040A000F82E0F2D10E08091D303800F912F911DDA
:1040B00009976CF188E090E06C01C01AD10AB80150
:1040C0006C527C4FA60184ED93E00E940832B80147
:1040D00064527C4FA6018CED93E00E940832A60149
:1040E000440F551FB801660F771F64517C4F8CEE4B
:1040F00093E00E940832B8016C517C4FA60184EE17
:1041000093E00E94083288E08F198093D3031091C6
:10411000D303DE01119640E0842F810FF41212C008
:104120008093D30328960FB6F894DEBF0FBECDBFA1
:10413000DF91CF911F910F91FF90DF90CF90089565
:10414000F12CAFCF5D91252F30E090E0BC016D5296
:104150007C4FF901EE0FFF1FEC5CFE4F0081FB016D
:104160000183220F331FF901EC5FFE4F21A9FB01F0
:104170002187518B880F991FFC01ED52FC4F128E45
:10418000118E4F5FC9CFB0E0A0E0E9ECF0E20C94F3
:104190006A31F82E8091E1018F1124C09091290499
:1041A00093702091E20130E081E09217130609F448
:1041B00080E081708093E00180912E049091DF0176
:1041C000981739F08093DF0140E060E080E00E94C2
:1041D00029202AE22F1588F0EF2DF0E0ED56FD4C56
:1041E0000C94623181E0E5CF8091E001882359F0A1
:1041F00040E060E080E00E94292080E004C08EED75
:1042000091E00E94631D9091DE019F5F9093DE011B
:1042100081110CC082E08093DD018091E001811169
:1042200005C0F11003C083E08093DD01CDB7DEB798
:10423000E0E10C9486318EED91E00E949D1DE3CF6C
:104240008EED91E00E94E91DDECF8EED91E00E949F
:10425000341ED9CF8EED91E00E94891ED4CF8EED11
:1042600091E00E944C1BCFCF8EED91E00E94511B3C
:10427000CACF8EED91E00E94E91AC5CF8EED91E094
:104280000E94EE1AC0CF8EED91E00E947E1ABBCF45
:104290008EED91E00E94831AB6CF8EED91E00E94E0
:1042A000561BB1CF8EED91E00E945B1BACCF8EED23
:1042B00091E00E94601BA7CF8EED91E00E94651BEC
:1042C000A2CF8EED91E00E94881A9DCF8EED91E0F5
:1042D0000E94F31A98CF8EED91E00E94F81A93CFC6
:1042E0008EED91E00E948D1A8ECF8EED91E00E94AE
:1042F000CB1B89CF8EED91E00E94D01B84CF8EED39
:1043000091E00E94D51B7FCF8EED91E00E941B1F94
:104310007ACF8EED91E00E94891F75CF8EED91E0EE
:104320000E94D61F70CF8EED91E00E946A1B6BCF6A
:104330008EED91E00E946F1B66CF8091DE011BE045
:10434000819F100D112440912F04509130046091F1
:104350003104709132048091CE039091CF03A091EB
:10436000D003B091D10384179507A607B70708F0CB
:1043700053C00E946B16082F0E946B1695E3891B91
:10438000F0F7890FC82FD0E0FE01E256FE4F809172
:10439000DF019081892309F43FC020E040E060E024
:1043A00001FD13C00E946B16082F0E946B168695A4
:1043B000782F2FE7720F08F47FEF602F80912C0485
:1043C0000E94CC19462F282F672FCE010E940A1A6F
:1043D00020912D0430E1230F08F42FEF60E1822FAC
:1043E00090E00E943116BC0184EF91E00E94F93008
:1043F00080912F0490913004A0913104B091320447
:10440000860F971FA11DB11D8093CE039093CF03FC
:10441000A093D003B093D10381E0153308F4F3CE19
:10442000ECCE4091CA035091CB036091CC037091C4
:10443000CD0380912F0490913004A0913104B0916C
:10444000320484179507A607B70708F4D6CE8091E3
:10445000E001811120C0C091DE018BE0C89FC02D1A
:1044600011241BE01C0F012F163308F005E3CC2E9E
:10447000D12C33E0C39FE0011124C55DDC4FC01691
:1044800008F441C0EBE2F3E087EC93E0153308F069
:1044900053C081E0B8CE40E060E080E00E94292077
:1044A0000BE213E0D0E0C0E03FE7E32E0E946B1682
:1044B00081FF0BC0F80110821182128221960D5FDC
:1044C0001F4FC533D10591F7C6CF0E946B16B82E8A
:1044D0000E946B168695782F2E2D720F08F47FEFB1
:1044E000CE01880F991F8C0F9D1FFC01E55DFC4FCD
:1044F0006F016B2D80912C040E942D16F6016083B4
:1045000071838283DBCFF601E256FE4F808190916A
:10451000DF01892331F02A8148816981C6010E9427
:104520000A1A2396FFEFCF1ADF0AA9CF238134811D
:1045300045812193319341938E179F07B9F70E94CC
:104540006B1681FF1FC01092C7031092C803109210
:10455000C9030E941B1800912F0410913004209170
:10456000310430913204DC01CB01800F911FA21F76
:10457000B31F8093CA039093CB03A093CC03B09353
:10458000CD033BCE0E946B16C82F0E946B168695FA
:10459000782F2FE7720F08F47FEF6C2F80912C0497
:1045A0000E942D166093C7037093C8038093C903BC
:1045B000D0CF8091E001882329F040E060E080E0E6
:1045C0000E9429209091DE018BE0E82E989FE00C5C
:1045D000112440912F045091300460913104709166
:1045E00032048091270390912803A0912903B09170
:1045F0002A0384179507A607B70708F070C06091D3
:104600002A0470912B0480912C040E94CC19762EE0
:10461000672E582E0FE013E0C4E0D1E05E014E019A
:10462000680185E0482EF60121916F01F401819126
:104630004F0190E0222309F458C0252D472D662D07
:104640000E940A1AF5018385252D472D662D90E0DD
:104650000E940A1AF6018081319780834A94F1E022
:10466000AF1AB1084110DFCF8D8190E0F8012581AC
:10467000222309F445C0252D472D662D0E940A1AD4
:104680008E81252D472D662D90E00E940A1A0E94EA
:104690006B16837091E009F090E0F80195830A5F52
:1046A0001F4F2C96F1E0C433DF0709F0B7CF0E940B
:1046B0001B1800912F041091300420913104309187
:1046C0003204DC01CB01800F911FA21FB31F809326
:1046D000270390932803A0932903B0932A0381E032
:1046E00024E32E1508F08FCD88CD20E040E060E077
:1046F0000E940A1AF501838520E040E060E0A7CF20
:1047000020E040E060E00E940A1A8E8120E040E054
:1047100060E0BACF8EED91E00E944E1C74CD8EED1C
:1047200091E00E94531C6FCD8EED91E00E94FF1C22
:104730006ACD8EED91E00E940C1D65CD8EED91E06D
:104740000E94131D60CD8EED91E00E94201D5BCD77
:104750008EED91E00E94271D56CD8EED91E00E94D6
:10476000341D51CD8EED91E00E943B1D4CCD8EED60
:1047700091E00E94481D47CD8EED91E00E944F1DB3
:1047800042CD8EED91E00E945C1D3DCD81E008950B
:104790000E94C623089581E008950E94CB230895C6
:1047A000FC0180819BE0899F802D1124682F863336
:1047B00008F065E38B500E94CD2308954F925F92DD
:1047C0006F927F928F929F92AF92BF92CF92DF9221
:1047D000EF92FF92CF936091FC037091FD03809163
:1047E000FE039091FF030E94FF296B017C010E9450
:1047F000E4294B015C018092FC039092FD03A0929E
:10480000FE03B092FF03A091D303E3EDF3E08A2F00
:1048100090E04FEF5FEF60E070E04C195D096E09CA
:104820007F09A9132AC08093D30380910004C0E0BC
:10483000811108C080912904C82FC37019F0C82FB6
:10484000C695C6958091DD01813009F440C088236A
:1048500039F1823009F447C0833009F44FC0CF9159
:10486000FF90EF90DF90CF90BF90AF909F908F9090
:104870007F906F905F904F900895218D328D290128
:10488000712C612C441555056605770520F481507F
:104890009F5F3296C6CF2C0D3D1D328F218FF8CFF2
:1048A0001092DE0180922F0490923004A092310485
:1048B000B092320489E2E3EDF3E0A3E3B4E00190C7
:1048C0000D928A95E1F781E08093DD01C8CF8C2FAE
:1048D0000E94C320CC2319F20E94C8238EED91E0E0
:1048E0000E94D023BCCFC093E10180912904837042
:1048F0008093E2010E94041A83E0E6CF8091D20304
:1049000081110E94C11960912F047091300480912F
:104910003104909132040E94FF29603171058105B4
:10492000910508F49CCF1092DD0199CFE0917302BC
:10493000F09174020995109233048FEF9FEF9093DA
:104940004D0480934C0490934F0480934E049093B5
:104950005104809350049093530480935204909395
:104960005504809354049093570480935604909375
:1049700059048093580490935B0480935A041092D6
:10498000D3039093ED038093EC039093EF03809314
:10499000EE039093F1038093F0039093F3038093DD
:1049A000F2039093F5038093F4039093F7038093BD
:1049B000F6039093F9038093F8039093FB0380939D
:1049C000FA030E94220E811104C00E94B10E0E94BF
:1049D000CF1981E08093D20346E050E06CE170E0B3
:1049E00089E294E00E9411321092D203809129044E
:1049F0008C7F11F40E94CF190895CF93C82F88237C
:104A000091F08091000481110EC00E94C320109289
:104A1000E1018091290483708093E2010E94041ACD
:104A200083E08093DD01C0930004CF910895E9E213
:104A3000F4E0908121E0922790831092DD010E94A2
:104A4000EF18089581E00E94172508959091290498
:104A5000937051F0811109C09460909329041092D1
:104A6000DD01862F0E94EF1808958B3210F0986AAE
:104A7000F4CF282F220F220F922BEFCF61E00E945C
:104A800026250895682F909129049695969581E0A2
:104A9000890F8B3208F081E00E942625089581E07D
:104AA0000E9442250895682F909129049695969525
:104AB0008FEF890F09F48AE20E942625089581E08C
:104AC0000E945325089590912904937061F080937A
:104AD0002A0460932B04453B08F044EB40932C04DC
:104AE000822F0E94EF180895A9E2B4E01196EC918C
:104AF0001197F0E0282F13964C91139712966C9112
:104B0000CF0108960E946325089581E00E947425D4
:104B10000895E9E2F4E09181282F43816281E92F31
:104B2000E850FF0BCF010E946325089581E00E94A9
:104B300089250895E9E2F4E0628120E1620F08F43A
:104B40006FEF9181282F4381892F90E00E94632588
:104B5000089581E00E949A250895E9E2F4E06281D7
:104B600020E1621B08F460E09181282F4381892FA6
:104B700090E00E946325089581E00E94AD2508958C
:104B8000E9E2F4E0438120E1420F08F44FEF918124
:104B9000282F6281892F90E00E946325089581E08B
:104BA0000E94C0250895E9E2F4E0438120E1421B20
:104BB00008F440E09181282F6281892F90E00E94C3
:104BC0006325089581E00E94D3250895E9E2F4E089
:104BD000248130E1230F08F42FEF24830E94EF1883
:104BE000089581E00E94E6250895E9E2F4E0248139
:104BF00030E1231B08F420E024830E94EF1808957D
:104C000081E00E94F52508950895FC01EE0FFF1F35
:104C1000E80FF91FE45AFB4F618340832283089514
:104C2000ECE5F4E0818360834283339694E0EB3FCC
:104C3000F907C1F7089565E370E08CE594E00E9400
:104C400085260895FA01811101C0FB010995089597
:104C50001F93CF93DF93EC01FB011281111110C060
:104C60000E94340D8272FE01E052F847E531F105F1
:104C700008F049C0E254FD4C0C9462310E94222598
:104C8000812FDF91CF911F9108954FE555E26FE499
:104C900075E20E942226F4CF4FE455E26FE575E2FB
:104CA000F8CF46E955E265E875E2F3CF45E855E20D
:104CB00066E975E2EECF4CEB55E269EA75E2E9CFC1
:104CC00049EA55E26CEB75E2E4CF42EE55E26FEC57
:104CD00075E2DFCF4FEC55E262EE75E2DACF40E0ED
:104CE00056E261EF75E2D5CF41EF55E260E076E242
:104CF000D0CF81E00E943E25C3CF85E0FBCF8DE081
:104D0000F9CF82E1F7CF11E0BBCF6A9A4EB14B7F6A
:104D10005EB15460EFB7F8949B01220F331F260F4A
:104D2000371F280F391F2817390741F4EFBF8FE5C8
:104D300094E00197F1F700C000000895DC016D9147
:104D4000CD0178E05EB9000000C067FF4EB9660F84
:104D5000000000C000C000C04EB900C07A9591F7B5
:104D6000E2CFCF93DF93EC01FB018281882309F42A
:104D7000D2C09E0130572332310508F0B2C00E94E4
:104D8000370E9093180480931704FE01E150F0470A
:104D9000E232F10520F4ED52FD4C0C946231809129
:104DA000170481608093170493C080911804886071
:104DB000809318048DC0809117048260F3CF809196
:104DC00017048460EFCF809117048860EBCF809147
:104DD00018048160EDCF809118048260E9CF809142
:104DE00017048061DFCF809117048062DBCF809150
:104DF00017048064D7CF0E94BC0880911704806894
:104E0000D1CF809117048C60CDCF8091180483603E
:104E1000CFCF809117048E7FC5CF80911804877FF4
:104E2000C7CF809117048D7FBDCF809117048B7FF2
:104E3000B9CF80911704877FB5CF809118048E7FFA
:104E4000B7CF809118048D7FB3CF809117048F7EE8
:104E5000A9CF809117048F7DA5CF809117048F7BF8
:104E6000A1CF0E94BC08809117048F779BCF8091BF
:104E70001704837F97CF809118048C7F99CF8091FE
:104E8000170482FB992790F921E0922790FB82F981
:104E900090FB83F987CF80911804982F909591709B
:104EA0008E7F892B90FB81F983CF90911704892FF6
:104EB0008F7B96FF806476CF0E94BC089091170488
:104EC000892F97FB87F980586DCF81E00E94B40E3F
:104ED00080911704909118040E943C0E0E94BC0817
:104EE00080E0DF91CF91089580E0F0CF909117049A
:104EF000892F8F7E94FF806155CF90911704892F61
:104F00008E7F90FF81604ECF90911804892F877F0C
:104F100093FF88604DCF81E0E4CFCF93DF93EB0127
:104F200086319C4711F50E94340D9A81992399F09E
:104F30008A7A91E009F490E090930104811109C00C
:104F400089E20E940C0D0E94750D80E0DF91CF91E7
:104F5000089585E3F6CF80910104811104C089E2B0
:104F60000E94140DF0CF85E3FBCF81E0EFCF0F93CC
:104F70001F93CF93DF93C42FD22FFC01828188230C
:104F8000C9F0409304040E94D829909303048093AD
:104F9000020480E28C0F883040F4C77081E001C0C9
:104FA000880FCA95EAF70E945F06DF91CF911F91A3
:104FB0000F91089510910404141332C080910204DB
:104FC000909103040E94F029883C910548F5C0E2C5
:104FD000CD0F1D17B9F080E2810F883040F41770B3
:104FE00081E001C0880F1A95EAF70E946606C83072
:104FF00048F481E09D2F977001C0880F9A95EAF7D9
:105000000E945F06802F0E945606C83070F6D77047
:1050100081E001C0880FDA95EAF70E946606C5CFE5
:1050200080E28C0F883008F6C77081E001C0880FDD
:10503000CA95EAF7F2CF0F93DB0188519C4787307E
:105040009105A0F5FC01EB50FD4C0C94623106E299
:1050500021EE41EE6AE17CE7CD010E94B72780E0B6
:105060000F91089507E225EE45EE6BE17CE7F4CF62
:1050700006E221EE40EE68E17CE7EECF07E225EEA6
:1050800044EE69E17CE7E8CF06E221EE42EE6CE116
:105090007CE7E2CF07E225EE46EE6DE17CE7DCCF70
:1050A00008E221E045EE6EE17CE7D6CF12968C91C6
:1050B000882319F010920404D3CF81E0D1CF9093CC
:1050C0007D0280937C02089590930A0480930904E2
:1050D0000895E0910904F0910A04309729F00190B5
:1050E000F081E02D0995089580E00895E09109048C
:1050F000F0910A04309721F00280F381E02D0995A8
:105100000895E0910904F0910A04309739F022E003
:10511000DC012C930480F581E02D09950895A3E02E
:10512000B0E0E5E9F8E20C94783120910704309181
:10513000080428173907A1F0909308048093070406
:10514000E0910904F0910A04309751F023E029839B
:105150009B838A830680F781E02DCE010196099515
:105160002396E2E00C949431A3E0B0E0EAEBF8E29D
:105170000C947831209105043091060428173907E2
:10518000A1F09093060480930504E0910904F09146
:105190000A04309751F024E029839B838A83068098
:1051A000F781E02DCE01019609952396E2E00C945B
:1051B00094319C012E5F3F4FAC01485F5F4F80E010
:1051C0002417350709F40895F90191919F01992356
:1051D000B9F38F5FF5CF662349F0FC01329608964C
:1051E0002191261729F0E817F907D1F780E00895F3
:1051F00081E008959C01FC0132969FEF80E041918F
:10520000461751F09F3F19F4411101C0982F8F5F4D
:105210008630A9F79F3F09F40895290F311D97FDA6
:105220003A95F90162830895FC013296089621911E
:10523000261303C0DF0111971C92E817F907B9F78D
:1052400008950E94FA2808950E941429089502964C
:1052500026E0FC0111922A95E9F7089546E050E016
:105260000E94FB3121E0892B09F420E0822F089570
:1052700008950E9438290895811106C081E0809325
:105280000B040E943929089582E0F9CF83E08093CE
:105290000B040E94392908950E943C29089581E059
:1052A00080930B040E94392908950E944F29089584
:1052B0000895089508950895CF930E945A290E9451
:1052C00080120E945B29C0E08C2F0E94B511892BAF
:1052D00031F4CF5FC430C1F780E0CF91089581E011
:1052E000FCCF85B7806885BF85B7806885BF089586
:1052F0001F921FB61F9211248F939F93AF93BF935A
:1053000080910C04811113C08091FB049091FC04E6
:10531000A091FD04B091FE044196A11DB11D8093A2
:10532000FB049093FC04A093FD04B093FE04BF9192
:10533000AF919F918F911F901FBE1F9018958091E4
:105340000305843031F10E94B90410920C0488E105
:1053500090E020E40FB6F894A895809360000FBE0B
:105360002093600083B7817F846083BF83B78160AF
:1053700083BF7894889583B78E7F83BF0FB6F894E8
:10538000A895809160008861809360001092600011
:105390000FBE08950E94BC080E94C304089582E0D5
:1053A00084BD93E095BD9AEF97BD80936E000895FC
:1053B0002FB7F8948091FB049091FC04A091FD0418
:1053C000B091FE042FBF08952FB7F8946091FB04AD
:1053D0007091FC048091FD049091FE042FBF08950C
:1053E0009C014FB7F8948091FB049091FC04A0912C
:1053F000FD04B091FE044FBF821B930B0895CF9222
:10540000DF92EF92FF922FB7F894C090FB04D090F8
:10541000FC04E090FD04F090FE042FBFA70196016C
:10542000261B370B480B590BCA01B901FF90EF90AF
:10543000DF90CF90089578941F921FB61F92112489
:105440008F939F93AF93BF938091FB049091FC0443
:10545000A091FD04B091FE040196A11DB11D8093A1
:10546000FB049093FC04A093FD04B093FE04BF9151
:10547000AF919F918F911F901FBE1F90189581E053
:105480008093E00080E28093D8001092C9008FE101
:105490009EE40197F1F700C0000087E090EBDC018B
:1054A00080930C0590930D05A0930E05B0930F0506
:1054B00088E19CE00FB6F894A895809360000FBE39
:1054C00090936000FFCF88E19CE00FB6F894A89518
:1054D000809360000FBE90936000FFCF8091150411
:1054E00008959B01BA01909103059430E9F48F70FF
:1054F0008093E9009FEF8091E800915085FD06C000
:1055000085ED8A95F1F700009111F5CF8091E800C3
:1055100085FF0AC050E040E0C9010E94662C8091DE
:10552000E8008E778093E800089543E050E0BC01E6
:1055300082E00E94712A089546E050E0BC0182E0BA
:105540000E94712A0895CF93DF93EC0148E050E068
:10555000BC0181E00E94712A88E0FE01ADE0B4E068
:1055600001900D928A95E1F7DF91CF910895809196
:105570000205811109C00E94F62D0E94532E8091D0
:10558000E20084608093E20008951092020508957D
:105590000E944F2908956091FF0481E0611101C0CC
:1055A00080E00E94462908959091030581E094309F
:1055B00009F080E06091FF040E944C29089542E0C8
:1055C00061EC81E00E94722D42E261EC82E00E9477
:1055D000722D9091030581E0943009F080E0609194
:1055E000FF040E943C29089580910505833009F449
:1055F00061C030F48130D1F1823009F49EC0089549
:105600008A3009F48AC08B3009F46FC0893009F000
:1056100050C080910405813209F04BC0809108058B
:1056200090910905029708F044C08091E800877FB7
:105630008093E8008091E80082FF37C09091F300EA
:105640008091F200029731F48091F100813011F0E5
:10565000863021F48091F100809315048091E80058
:105660008B778093E8000E94A62D23C080910405CB
:10567000813AF9F48091E800877F8093E800809177
:10568000080590910905892B61F468E08DE094E0AC
:1056900070E00E94B52C8091E8008B778093E80041
:1056A000089560E090E080E0F3CF809103058111E0
:1056B000C1CF089580910405813AD9F780910805FA
:1056C00090910905892BA9F78091E800877F809345
:1056D000E8008091E80080FFFCCF8091ED0180938D
:1056E000F1008091E8008E77BCCF80910405813273
:1056F00001F78091080590910905892BD1F68091D9
:10570000E800877F8093E8000E94A62D809106051F
:105710008093ED010E94BC080895809104058132B8
:1057200041F68091E800877F8093E8000E94A62DD3
:105730008091070580931604089580910405813AAD
:1057400009F0B7CF8091E800877F8093E8008091CF
:10575000E80080FFFCCF80911604C1CF84B7877F1B
:1057600084BF0FB6F894A8958091600088618093FB
:105770006000109260000FBE80E890E00FB6F894D1
:1057800080936100909361000FBE0E945529089597
:105790000E94F62D0E94532EE2EEF0E0808184609C
:1057A000808378940E94D230089585EE91E00E9423
:1057B0006428089580910305853031F480910305B4
:1057C000853019F00E94CA2908950E949F2980916E
:1057D0000105882399F30E945C29882379F30E94AC
:1057E000502C0E94BC08EACF08950E94F82B08951F
:1057F000292F33272330310519F168F42130310581
:1058000009F444C02230310509F445C090E080E03D
:1058100030E020E025C02132310549F12232310546
:10582000A9F780E490E024ED36E061157105C1F040
:105830008BE790E029E536E06130710589F0E6CF2D
:1058400099278130910581F0009729F00297F1F6B0
:10585000ECECF5E002C0E8E0F6E0849190E09F0116
:10586000FA01318320830895E0EFF5E0F6CF89E077
:1058700090E02EE136E06115710591F389E090E04A
:1058800027E336E06130710559F3C0CF82E190E043
:1058900027E436E0E5CF8BE390E02CE036E0E0CF84
:1058A00080E189BD82E189BD09B400FEFDCF809110
:1058B000D8008F7D8093D8008091E0008260809333
:1058C000E0008091E00081FDFCCF0895AF92BF928F
:1058D000CF92DF92FF920F931F93CF93DF936C01D0
:1058E000EB018A010E94C52DF82E811123C00115FC
:1058F000110539F0F80180819181C81BD90BC80EC0
:10590000D91EB12CA12C2097A9F08091E80085FD2B
:1059100022C08091E8008E778093E8000115110580
:10592000A1F0F80180819181A80EB91EB182A082F8
:1059300085E0F82E8F2DDF91CF911F910F91FF9071
:10594000DF90CF90BF90AF9008950E94C52D88231F
:10595000D1F2F82EEFCFF60181916F018093F10023
:105960002197FFEFAF1ABF0ACECFFC0180910A0545
:1059700090910B0586179707A0F06115710529F422
:105980009091E8009E779093E80090E06115710592
:1059900051F4911108C08091E80082FF34C080E08A
:1059A0000895BC01F2CF809103058823C1F18530B1
:1059B000C1F18091E80083FD30C08091E80082FD54
:1059C000EACF8091E80080FFE1CF8091F300209141
:1059D000F200382F6115710519F02830310558F0A3
:1059E00091E02830310509F090E02091E8002E7711
:1059F0002093E800CBCF81918093F1006150710931
:105A00002F5F3F4FE7CF80910305882341F085301A
:105A100041F08091E80083FFBECF81E0089582E0ED
:105A2000089583E00895FC0180910A0590910B058B
:105A300086179707A0F06115710529F48091E80099
:105A40008E778093E80090E06115710551F4911113
:105A500008C08091E80082FF35C080E00895BC0155
:105A6000F2CF809103058823C9F18530C9F1809177
:105A7000E80083FD31C08091E80082FDEACF80918B
:105A8000E80080FFE1CF8091F3002091F200382FF1
:105A90006115710519F02830310558F091E0283072
:105AA000310509F090E08091E8008E778093E8005E
:105AB000CBCF84918093F1003196615071092F5FB3
:105AC0003F4FE6CF80910305882341F0853041F0B8
:105AD0008091E80083FFBDCF81E0089582E00895C2
